:0400000031EF31F0BB
:1061A000016E9EA8120001C0ADFF1200000E936E9A
:1061B00092689468000E966E1200AC9CAC8AAC9803
:1061C000AC94AB8EAB880C0EAF6E1200506C617944
:1061D000657220322830292077696E7300506C6117
:1061E00079657220312858292077696E7300D6ECC2
:1061F00030F0010E7DEC32F0700ED312070EB46E4B
:10620000DDEC30F0C30EC216C2800EEC33F000EFAE
:1062100000F001500302F3CF05F0F4CF06F0015077
:106220000402F350062602500302F350062605C06E
:1062300001F006C002F01200026E0250D8B403D082
:106240008A808A9202D08A928A82000E956E8A96FD
:1062500001C08CFF8A8800D08A9800D08A908A92E8
:106260001200CC0EF66E610EF76E000EF86E00EEA8
:10627000B4F010EE22F00900F5CFEEFFE550E1504A
:10628000FAE100EE22F0180EEE6AE806FDE1000EDB
:10629000F86E0001F7EF30F0010E1D6E1BC013F019
:1062A00039EC34F013501410D8A412D01BC013F0E2
:1062B000A8EC34F013501410D8A40AD01BC013F06B
:1062C000BDEC35F013501410D8A402D0000E1D6E92
:1062D0001DC01BF01C6A1200056E000E046E800EBD
:1062E00005601200070E036401D0120005C037F0EC
:1062F00003C036F03F0E056404D0400E055E010E6B
:10630000046E8A9405504009016E04501CEC31F073
:106310000350B809016E04501CEC31F08A8412005D
:10632000000E126E07500A24D96EDA6A075008244C
:10633000E16EE26ADE50E618D8A422D007500C24A1
:10634000D96EDA6A07500A24E16EE26ADE50E61876
:10635000D8A416D007500E24D96EDA6A07500C2440
:10636000E16EE26ADE50E618D8A40AD0075008248D
:10637000D96EDA6A200EDE18D8B402D0010E126E81
:1063800012C007F0086A1200036E000E056E8A94B0
:10639000400E016E000E1CEC31F0400E016E010E3D
:1063A0001CEC31F00550B809016E000E1CEC31F008
:1063B0000550B809016E010E1CEC31F08A84000E04
:1063C000046E0350010DF3500008016E000E1CEC2A
:1063D00031F00350010DF3500008016E010E1CEC6A
:1063E00031F0042A3F0E0464ECD7052A070E056439
:1063F000CED71200D3EC37F001C00CF002C00DF084
:106400000C06D8A00D06000E0F6E000E0E6E0E507C
:10641000070D0550F3240C24D96EDA6A200EDE181D
:10642000D8A419D0065008240A6E075009200B6E14
:106430000AC0F6FF0BC0F7FF0E50070D0550F324FE
:106440000C24D96EDA6A0800F5CFDFFF000E066E65
:10645000010E056E12000E4A0F2A0FBED8D70F503C
:1064600004E1060E0E5CD8A0D2D7000E066E000E18
:10647000056E12002ED00E50D8B415D00FC003F008
:106480000CC0F6FF0DC0F7FFF86A070EF76403D0E3
:106490000800F55005D0F6CFE1FFF7CFE2FFE75057
:1064A000CDEC33F014D00FC003F00CC0F6FF0DC0DC
:1064B000F7FFF86A070EF76403D00800F55005D01F
:1064C000F6CFE1FFF7CFE2FFE75061EC33F00C4A83
:1064D0000D2A0CC0F6FF0DC0F7FFF86A070EF7642F
:1064E00003D00800F55005D0F6CFE1FFF7CFE2FF6B
:1064F000E7500009D8B41200BED7066E000E836EB6
:106500008A9A210EE82EFED700F08A8A8A988A900D
:106510008A928A9400D0C00E016E000E1CEC31F0FD
:10652000C00E016E010E1CEC31F0400E016E000E2B
:106530001CEC31F0400E016E010E1CEC31F0B80E77
:10654000016E000E1CEC31F0B80E016E010E1CEC59
:1065500031F00604D8A40BD03F0E016E000E1CECE7
:1065600031F03F0E016E010E1CEC31F00AD03E0EF0
:10657000016E000E1CEC31F03E0E016E010E1CECA3
:1065800031F0000EC4EC31F01200000E136E000E5C
:10659000126E000E156E000E146E12500708036E78
:1065A0001450110DF350020F6CEC31F0FD0E0C6E17
:1065B0007F0E0D6E010E0E6E020E0F6E3AEC32F073
:1065C0001250070D1050F3241424D96EDA6ADF50EC
:1065D000116E020E036E1150CDEC33F0144A152AE1
:1065E00015BEDBD7155004E1070E145CD8A0D5D733
:1065F000FD0E0C6E7F0E0D6E010E0E6E020E0F6EF6
:106600003AEC32F0124A132A13BEC3D7135005E1F5
:10661000060E125CD8B01200BCD71200000E036E3A
:10662000190E6CEC31F0F00E0C6E7F0E0D6E010E3B
:106630000E6E020E0F6E3AEC32F0040E036E160E62
:106640006CEC31F0E50E0C6E7F0E0D6E010E0E6ED1
:10665000020E0F6E3AEC32F00B0E216E260E206EFB
:106660005E0EE82EFED7202EFCD7212EFAD717EC8F
:1066700035F001C028F002C029F028502910D8B404
:106680001200050E036E160E6CEC31F0DA0E0C6E75
:106690007F0E0D6E010E0E6E020E0F6E3AEC32F092
:1066A000030E216E8A0E206E560EE82EFED7202E87
:1066B000FCD7212EFAD7000EC4EC31F079EC36F07D
:1066C0001200076E000E096E0A0E0718D8A404D037
:1066D000000E376E362A12003F0E376406D0010EC8
:1066E000096E3750C00F066E02D037C006F0200E7C
:1066F000075E000E086E3F0E066412D0400E065E66
:10670000010E096E8A9406504009016E010E1CECC0
:1067100031F03650B809016E010E1CEC31F08A845C
:106720000350D8B419D00750030DCD0E046E7E0E61
:10673000056EF3500426F450052208500426000E7E
:10674000052204C0F6FF05C0F7FF0800F5CF01F0F1
:1067500009501CEC31F019D00750030DCD0E046E1A
:106760007E0E056EF3500426F450052208500426D0
:10677000000E052204C0F6FF05C0F7FF0800F55023
:10678000FF0A016E09501CEC31F0062A082A020E9D
:106790000864B1D7050E37261200086E000E0B6E86
:1067A0000A0E0818D8A404D0000E376E362A12003C
:1067B0003F0E376406D0010E0B6E3750C00F096EC6
:1067C00002D037C009F00850080DF3CF06F0F4CF1F
:1067D00007F0000E0A6E3F0E096412D0400E095EEB
:1067E000010E0B6E8A9409504009016E010E1CECDB
:1067F00031F03650B809016E010E1CEC31F08A847C
:106800000350D8B417D0CD0E046E720E056E0A5028
:106810000426000E0522065004260750052204C057
:10682000F6FF05C0F7FF0800F5CF01F00B501CEC98
:1068300031F017D0CD0E046E720E056E0A5004268C
:10684000000E0522065004260750052204C0F6FF5C
:1068500005C0F7FF0800F550FF0A016E0B501CEC55
:1068600031F0092A0A2A070E0A64B5D7080E37261E
:106870001200000E256E000E246E000E186E010E22
:10688000176E000E396E000E386E39BE06D03950C4
:106890005AE1060E385CD8B056D0000E276E000EB6
:1068A000266E27BE06D027504BE1040E265CD8B0DA
:1068B00047D038C001F039C002F0000E046E070E58
:1068C000036E09EC31F026500124246E275002207B
:1068D000256E13C007F024C008F025C009F017503A
:1068E00024240A6E185025200B6E17C015F018C00E
:1068F00016F0D89015361636245015240C6E2550F7
:1069000016200D6E17C001F018C002F0000E046EC4
:10691000030E036E09EC31F0245001240E6E255055
:1069200002200F6E90EC31F007500810D8B405D05B
:10693000000E146E010E136E1200264A272AB1D7DC
:10694000384A392AA2D7000E146E000E136E1200B8
:10695000000E256E000E246E000E186E070E176EC8
:10696000000E396E000E386E39BE06D039505AE12D
:10697000030E385CD8B056D0000E276E000E266E7F
:1069800027BE06D027504BE1070E265CD8B047D073
:1069900038C001F039C002F0000E046E070E036E1D
:1069A00009EC31F026500124246E27500220256E78
:1069B00013C007F024C008F025C009F017502424A4
:1069C0000A6E185025200B6E17C015F018C016F06F
:1069D000D89015361636245015240C6E25501620E6
:1069E0000D6E17C001F018C002F0000E046E030E09
:1069F000036E09EC31F0245001240E6E2550022064
:106A00000F6E90EC31F007500810D8B405D0000E8E
:106A1000146E010E136E1200264A272AB1D7384A87
:106A2000392AA2D7000E146E000E136E1200000E4B
:106A3000356E000E346E000E336E000E326E000E98
:106A4000316E000E306E030EE82EFED700F0C30E3E
:106A5000C216C2828280C2B2FED7C450046E036ADC
:106A6000C35003242E6E000E04202F6E8290030E5E
:106A7000E82EFED700F0C250C30B0409C26EC282DA
:106A80008282C2B2FED7C450046E036AC35003248C
:106A90002C6E000E04202D6E829234502E1851E17F
:106AA00035502F18D8A44DD032502C184AE133500D
:106AB0002D18D8B435BE45D05F0E345C010E355864
:106AC000D8A03FD033BE06D0800E325C030E3358C0
:106AD000D8B037D0020E2F182E10D8B41AD0400ECE
:106AE0002E1804E1020E2F18D8B413D0C00E2E18A1
:106AF00004E1020E2F18D8B40CD0800E2E1804E139
:106B0000020E2F18D8B405D0030E2F182E10D8A4BB
:106B100018D0C00E2C1804E1020E2D18D8B40CD0D9
:106B2000800E2C1804E1020E2D18D8B405D0030EE7
:106B30002D182C10D8A405D0000E316E010E306E29
:106B400017D0030E046E8A0E036E560EE82EFED783
:106B5000032EFCD7042EFAD72EC034F02FC035F008
:106B60002CC032F02DC033F030043110D8A46BD7D4
:106B700030C001F031C002F01200000E236E000E92
:106B8000226E000E186E060E176E000E1A6E080E9C
:106B9000196E000E396E000E386E39BE08D03950AD
:106BA00005E1030E385CD8B09FD001D09DD0000E17
:106BB000276E000E266E27BE08D0275005E1070E6F
:106BC000265CD8B08AD001D088D038C001F039C056
:106BD00002F0000E046E070E036E09EC31F0265031
:106BE0000124246E27500220256E23BE06D0235098
:106BF00033E1040E225CD8B02FD013C007F024C0BC
:106C000008F025C009F0195024240A6E1A502520D6
:106C10000B6E19C015F01AC016F0D890153616363E
:106C2000245015240C6E255016200D6E19C001F04D
:106C30001AC002F0000E046E030E036E09EC31F070
:106C4000245001240E6E255002200F6E90EC31F07E
:106C500007500810D8A437D023BE3AD0235004E1FF
:106C6000030E225CD8A034D013C007F024C008F073
:106C700025C009F0175024240A6E185025200B6EE9
:106C800017C015F018C016F0D890153616362450D7
:106C900015240C6E255016200D6E17C001F018C07B
:106CA00002F0000E046E030E036E09EC31F0245066
:106CB00001240E6E255002200F6E90EC31F007502B
:106CC0000810D8B405D0000E146E010E136E120019
:106CD000224A232A264A272A6ED7000E236E000E48
:106CE000226E384A392A59D7000E146E000E136EE0
:106CF0001200FA0E0001AC6F7F0EAD6F000EB16F87
:106D0000000EB06FB051820FD96EDA6A200EDF6EBE
:106D1000B04BB12BB1BFF6D7B15104E12A0EB05D33
:106D2000D8A0F0D7000EB36F000EB26F000EAF6F99
:106D3000000EAE6F000EB36F000EB26F81D0820EE8
:106D4000106EC5EC32F020D0000E036E0A0E6CEC13
:106D500031F0B20E0C6E7F0E0D6E010E0E6E020E35
:106D60000F6E3AEC32F022D0000E036E0A0E6CEC7D
:106D700031F0C00E0C6E7F0E0D6E010E0E6E020E07
:106D80000F6E3AEC32F012D0010E0001B2151E6EF9
:106D9000000EB3151F6E1F50000AD8A407D01E5056
:106DA000000AD8B4D1D7010AD8B4DED7030E1F6EBB
:106DB0008A0E1E6E560EE82EFED71E2EFCD71F2EF4
:106DC000FAD713D0820E106EC5EC32F0010E036EAE
:106DD0000A0E6CEC31F0A20E0C6E7F0E0D6E010EE1
:106DE0000E6E020E0F6E3AEC32F0820E056E010E40
:106DF0000001B215066E076AACC008F0ADC009F01C
:106E0000FAEC31F005500610D8B4DCD7010E036E51
:106E1000000E6CEC31F0910E0C6E7F0E0D6E010EBB
:106E20000E6E020E0F6E3AEC32F0820E1B6E4CECC0
:106E300031F01BC0AEF01CC0AFF00001B24BB32B61
:106E4000B3BF06D0B35108E12A0EB25DD8B004D06A
:106E5000AE51AF11D8B473D7820E106EC5EC32F0BC
:106E60002A0E0001B219B311D8A423D0AE51AF112C
:106E7000D8A41FD0010E036E000E6CEC31F0910E01
:106E80000C6E7F0E0D6E010E0E6E020E0F6E3AEC42
:106E900032F0010E036E000E6CEC31F0CE0E0C6E73
:106EA0007F0E0D6E010E0E6E020E0F6E3AEC32F07A
:106EB0001200B207D8A0B30760D0000E036E000E18
:106EC0006CEC31F0990E0C6E7F0E0D6E010E0E6E95
:106ED000020E0F6E3AEC32F0000E036E010E6CECF7
:106EE00031F020EEC5F010EE60F0100EDBCFE3FFC6
:106EF000E806FCE2600E0C6E0D6A010E0E6E020ECC
:106F00000F6E3AEC32F0580ED0EC30F0150E1F6ECA
:106F10004B0E1E6EBE0EE82EFED71E2EFCD71F2E69
:106F2000FAD700D01200000E036E000E6CEC31F0A8
:106F3000990E0C6E7F0E0D6E010E0E6E020E0F6E10
:106F40003AEC32F0000E036E010E6CEC31F020EEE4
:106F5000B4F010EE71F0100EDBCFE3FFE806FCE2B8
:106F6000710E0C6E0D6A010E0E6E020E0F6E3AEC73
:106F700032F04F0ED0EC30F0C9D7010EB2151E6EB4
:106F8000000EB3151F6E010E1E26000E1F221F508D
:106F9000000AD8A412001E50010AD8B48ED7030AE2
:106FA000D8A41200C0D7000E2B6E000E2A6E000E61
:106FB000356E000E346E000E336E000E326E000E13
:106FC000316E000E306E030EE82EFED700F0C30EB9
:106FD000C216C2828280C2B2FED7C450046E036A57
:106FE000C35003242E6E000E04202F6E8290030ED9
:106FF000E82EFED700F0C250C30B0409C26EC28255
:107000008282C2B2FED7C450046E036AC350032406
:107010002C6E000E04202D6E829234502E1803E147
:1070200035502F18D8A436D132502C1803E13350E4
:107030002D18D8A42FD135BE2DD15F0E345C010E92
:107040003558D8A027D133BE06D0800E325C030E4F
:107050003358D8B01FD1800E2E1803E12F04D8B4B6
:1070600006D0C00E2E180EE12F04D8A40BD0400E6F
:107070002C1808E1030E2D18D8A404D0000E2B6E96
:10708000010E02D1020E2F182E10D8A405D0030E27
:107090002D182C10D8B41CD0400E2E180BE1020E67
:1070A0002F18D8A407D0C00E2C1804E1020E2D18FA
:1070B000D8B40ED0400E2E180FE1020E2F18D8A40F
:1070C0000BD0C00E2C1808E1020E2D18D8A404D045
:1070D000000E2B6E020ED8D0400E2E1809E1020EC3
:1070E0002F18D8A405D0030E2D182C10D8B41CD0FE
:1070F000800E2E180BE1020E2F18D8A407D0C00E58
:107100002C1804E1020E2D18D8B40ED0C00E2E1883
:107110000FE1020E2F18D8A40BD0800E2C1808E116
:10712000020E2D18D8A404D0000E2B6E030EACD086
:10713000800E2E1809E1020E2F18D8A405D0030ED8
:107140002D182C10D8B426D0C00E2E180BE1020E2C
:107150002F18D8A407D0C00E2C1804E1020E2D1849
:10716000D8B418D0030E2F182E10D8A407D0C00EF4
:107170002C1804E1020E2D18D8B40CD0030E2F18D1
:107180002E10D8A40BD0800E2C1808E1020E2D185A
:10719000D8A404D0000E2B6E040E76D0C00E2E188C
:1071A00009E1020E2F18D8A405D0030E2D182C10BB
:1071B000D8B418D0030E2F182E10D8A405D0030E63
:1071C0002D182C10D8B40ED0400E2E180FE1030E3F
:1071D0002F18D8A40BD0C00E2C1808E1020E2D18C1
:1071E000D8A404D0000E2B6E050E4ED0400E2E18E3
:1071F00009E1030E2F18D8A405D0030E2D182C106A
:10720000D8B415D0C00E2E1804E1030E2F18D8B430
:1072100007D0800E2E180FE1030E2F18D8A40BD024
:10722000C00E2C1808E1020E2D18D8A404D0000EB0
:107230002B6E060E29D0800E2E1804E1030E2F1897
:10724000D8B40CD0C00E2E1804E1030E2F18D8B4F9
:1072500005D0040E2F182E10D8A405D0030E2D181B
:107260002C10D8B40ED0800E2E1814E1040E2F1856
:10727000D8A410D0C00E2C180DE1020E2D18D8A4E1
:1072800009D0000E2B6E070E2A6E000E316E010E15
:10729000306E17D0030E046E8A0E036E560EE82E63
:1072A000FED7032EFCD7042EFAD72EC034F02FC001
:1072B00035F02CC032F02DC033F030043110D8A49A
:1072C00082D62AC001F02BC002F01200000000009C
:1072D00000000000000000000000000000000000AE
:1072E000000000000000000000000000000000009E
:1072F000000000000000000000000000000000008E
:10730000000000000000000000000000000000007D
:10731000000000000000000000000000000000006D
:10732000000000000000000000000000000000005D
:10733000000000000000000000000000000000004D
:10734000000000000000000000000000000000003D
:10735000000000000000000000000000000000002D
:10736000000000000000000000000000000000001D
:10737000000000000000000000000000000000000D
:1073800000000000000000000000000000000000FD
:1073900000000000000000000000000000000000ED
:1073A00000000000000000000000000000000000DD
:1073B00000000000000000000000000000000000CD
:1073C00000000000000000000000000000000000BD
:1073D000000000000000065F5F06000000000707D5
:1073E0000007070000147F7F147F7F1400242E6B9A
:1073F0006B3A120000466630180C666200307A4F15
:107400005D377A48000407030000000000001C3EBE
:1074100063410000000041633E1C000000082A3E5A
:107420001C1C3E2A0808083E3E080800000080E0B8
:10743000600000000008080808080800000000605C
:1074400060000000006030180C060301003E7F71F0
:10745000594D7F3E0040427F7F404000006273599B
:10746000496F660000226349497F360000181C16E8
:10747000537F7F5000276745457D3900003C7E4B98
:107480004979300000030371790F070000367F4906
:10749000497F360000064F49693F1E000000006624
:1074A00066000000000080E66600000000081C3650
:1074B00063410000002424242424240000004163AC
:1074C000361C080000020351590F0600003E7F41A0
:1074D0005D5D1F1E007C7E13137E7C0000417F7F5C
:1074E00049497F36001C3E634141632200417F7F52
:1074F00041633E1C00417F7F495D416300417F7FC6
:10750000491D0103001C3E6341517372007F7F08D7
:10751000087F7F000000417F7F4100000030704005
:10752000417F3F0100417F7F081C776300417F7FDF
:1075300041406070007F7F0E1C0E7F7F007F7F06C2
:107540000C187F7F001C3E6341633E1C00417F7F1F
:1075500049090F06001E3F21717F5E0000417F7FB9
:1075600009197F6600266F4D597332000003417F71
:107570007F410300007F7F40407F7F00001F3F600E
:10758000603F1F00007F7F3018307F7F0043673CE3
:10759000183C674300074F78784F07000047637136
:1075A000594D677300007F7F4141000000010306D1
:1075B0000C183060000041417F7F000000080C067D
:1075C00003060C080080808080808080800000039B
:1075D0000704000000207454543C784000417F3F71
:1075E0004848783000387C44446C280000307848A3
:1075F000493F7F4000387C54545C180000487E7F2F
:10760000490302000098BCA4A4F87C0400417F7FD9
:1076100008047C780000447D7D4000000060E0802C
:1076200080FD7D0000417F7F10386C440000417F69
:107630007F400000007C7C18381C7C78007C7C0437
:10764000047C780000387C44447C38000084FCF8DA
:10765000A4243C1800183C24A4F8FC8400447C7842
:107660004C041C1800485C54547424000000043E70
:107670007F442400003C7C40403C7C40001C3C603B
:10768000603C1C00003C7C7038707C3C00446C38D2
:1076900010386C44009CBCA0A0FC7C00004C6474BE
:1076A0005C4C64000008083E774141000000000087
:1076B00077770000004141773E080800000203018F
:1076C000030203010070784C464C7870000E9F91C5
:1076D000B1FB4A00003A7A40407A7A4000387C5444
:1076E000555D19000002237555557D7B4221755467
:1076F000547D794000217555547C784000207457A2
:10770000577C784000183CA4A4E4400000023B7D74
:1077100055555D1B02397D54545D190000397D5566
:10772000545C18000001457C7C41010000020345C7
:107730007D7D43020001457D7C40000000797D167F
:1077400012167D790070782B2B78700000447C7CB9
:107750005555450000207454547C7C54547C7E0B59
:10776000097F7F4900327B49497B320000327A48E9
:10777000487A320000327A4A48783000003A7B4139
:10778000417B7A40003A7A4240787840009ABAA029
:10779000A0FA7A000001193C66663C19013D7D4063
:1077A000407D3D0000183C24E7E7242400687E7FEC
:1077B00049436620002B2FFCFC2F2B0000FFFF0904
:1077C000092FF6F8A040C088FE7F090302207454F8
:1077D000557D79400000447D7D41000000307848AF
:1077E0004A7A320000387840427A7A40007A7A0A3F
:1077F0000A7A7000007D7D19317D7D000000262F02
:10780000292F2F280000262F292F26000030784D01
:1078100045602000003838080808080000080808FB
:1078200008383800004F6F3018CCEEBB914F6F30E6
:10783000186C76FBF90000007B7B000000081C360A
:1078400022081C362222361C0822361C08AA0055A3
:1078500000AA005500AA55AA55AA55AA55DDFFAAA7
:1078600077DDAAFF77000000FFFF00000010101076
:10787000FFFF000000141414FFFF0000001010FFB1
:10788000FF00FFFF001010F0F010F0F000141414CF
:10789000FCFC0000001414F7F700FFFF000000FFDD
:1078A000FF00FFFF001414F4F404FCFC0014141790
:1078B00017101F1F0010101F1F101F1F001414147B
:1078C0001F1F000000101010F0F00000000000006A
:1078D0001F1F1010101010101F1F1010101010106C
:1078E000F0F0101010000000FFFF1010101010102A
:1078F0001010101010101010FFFF101010000000DA
:10790000FFFF1414140000FFFF00FFFF1000001F12
:107910001F101717140000FCFC04F4F414141417BF
:1079200017101717141414F4F404F4F4140000FFDF
:10793000FF00F7F71414141414141414141414F787
:10794000F700F7F714141414171714141410101F59
:107950001F101F1F10141414F4F41414141010F03A
:10796000F010F0F01000001F1F101F1F100000008B
:107970001F1F141414000000FCFC1414140000F069
:10798000F010F0F0101010FFFF10FFFF101414148F
:10799000FFFF1414141010101F1F0000000000003F
:1079A000F0F0101010FFFFFFFFFFFFFFFFF0F0F0FF
:1079B000F0F0F0F0F0FFFFFFFF000000000000001B
:1079C00000FFFFFFFF0F0F0F0F0F0F0F0F387C444B
:1079D0006C386C4400FCFE2A2A3E1400007E7E02B5
:1079E0000206060000027E7E027E7E020063775D54
:1079F0004963630000387C447C3C04040080FE7EC4
:107A000020203E1E000406027E7C06020099BDE78F
:107A1000E7BD9900001C3E6B496B3E1C004C7E7319
:107A200001737E4C0030784A4F7D390000183C24A9
:107A30003C3C243C1898FC643C3E273D1800000068
:107A40000000000000000000000000000000000036
:107A50000000000000000000000000000000000026
:107A60000000000000000000000000000000000016
:107A70000000000000000000000000000000000006
:107A800000000000000000000000000000000000F6
:107A900000000000000000000000000000000000E6
:107AA00000000000000000000000000000000000D6
:107AB00000000000000000000000000000000000C6
:107AC00000000000000000000000000000000000B6
:107AD00000000000008080808000000000000000A6
:107AE0000000000000000000008000008000008016
:107AF0000000000000000000000000000000000086
:107B00000000000000000000000000000000000075
:107B10000000000000000000000000000000000065
:107B20000000000000000000000000000000000055
:107B30000000000000000000000000000000000045
:107B40000000000000000000000000000000000035
:107B50000000003E4180808080413E0000D894A417
:107B60006C00007884844C0088FC8081FF8081FF59
:107B7000800078848484780000D894A46C00007815
:107B800084844C000078848484780008FC488484D1
:107B9000780000789494580000000000D894A46CF9
:107BA00000041C6480740C0400D894A46C0004FFCE
:107BB000844000789494580088FC8804FC8804F879
:107BC0008000000000000000000000000000000035
:107BD00000000000000000000000000000000000A5
:107BE0000000000000000000000000000000000095
:107BF0000000000000000000000000000000000085
:107C00000000000000000000000000040704000065
:107C10000000000000000000000000000000000064
:107C20000004040601000000000000000000000045
:107C30000000000000000000000000000000000044
:107C40000000000000000000000000000000000034
:107C50000000000000000000000000000000000024
:107C60000000000000000000000000000000000014
:107C70000000000000000000000000000080F0F89C
:107C8000181C0E0E1C1878F0C080000000000000C8
:107C9000000000000000000000000080F0F8181C48
:107CA0000C0E0E1C18F8F080000000000000000010
:107CB00000000000000000000000000000000000C4
:107CC00000000000000000000000000000000000B4
:107CD00000000000000000000000000000000000A4
:107CE0000000000000000000000000000000000094
:107CF000000000000000000000000000F8FF0F007E
:107D000000000000000000000FFFF800000000006D
:107D100000000000000000000000F8FF0F0000005D
:107D20000000000000000FFFF8000000000000004D
:107D30000000000000000000000000000000000043
:107D40000000000000000000000000000000000033
:107D50000000000000000000000000000000000023
:107D600000000000000800080008001CFCF8800863
:107D700000080008000800080008E0FF3F090008AC
:107D8000000800080008000800093FFFE00800089C
:107D90000008000800080008E0FF3F09000800088C
:107DA00000080008000800090F0F0008000800087C
:107DB00000000000000000000000000000000000C3
:107DC00000000000000000000000000000000000B3
:107DD00000000000000000000000000000000000A3
:107DE00000000000000000000000000000073FFC51
:107DF000E000000000000080C0FC7F0700000000E1
:107E00000000000000000000000000073FFCE00050
:107E1000000000000000C0FC7F0700000000000020
:107E20000000000000000000000000000000000052
:107E30000000000000000000000000000000000042
:107E40000000000000000000000000000000000032
:107E50000000000000000000000000000000000022
:107E60000000000000000000000000000000000111
:107E7000070F1C18181C0F0701000000000000006D
:107E80000000000000000000000000000001070FDB
:107E90001C18181C0C0F0701000000000000000057
:107EA00000000000000000000000000000000000D2
:107EB00000000000000000000000000000000000C2
:107EC00000000000000000000000000000000000B2
:107ED000005C000C000C7C287C7C447C241048282E
:107EE0005408000C003844004438002010081038B2
:107EF0001080400010101000400020100838443856
:107F0000007C006454484454281C107C4C54243891
:107F1000542004740C285428085438005000805011
:107F200000102844282828442810045408384C5CA1
:107F30007814787C54283844447C44387C54447CFD
:107F400014043844347C107C007C0020403C7C10BD
:107F50006C7C40407C087C7C047C7C447C7C1408E9
:107F60003844787C1468485424047C047C407C3C6D
:107F7000403C7C207C6C106C1C601C64544C7C4429
:107F800000081020447C0008040880808004080059
:107F90000120202020202020202020202020202000
:107FA000200020436F6C6C756D6E2066756C6C20C4
:107FB0002100506C617965722031207475726E00F9
:107FC000506C617965722032207475726E0049744C
:107FD000277320612074696521002D2D2D2D2D2DF5
:107FE0002D2D2D2D0053746172742047616D650035
:107FF000436F6E6E656374203400584F0049000073
:020000040020DA
:08000000FFFFFFFFFFFFFFFF00
:020000040030CA
:0E000000000C191EFF8301FF0FC00FE00F4020
:00000001FF
